:107000000C945D380C9495380C947A380C947A383A
:107010000C947A380C947A380C947A380C947A3828
:107020000C947A380C947A380C947A380C947A3818
:107030000C947A380C947A380C947A380C947A3808
:107040000C947A380C947A380C947A380C947A38F8
:107050000C947A380C947A380C947A380C947A38E8
:107060000C947A380C947A380902120001010080DD
:10707000FA09040000000000000012011001FF00E6
:107080000008C016DC050201010200010E035500D4
:10709000530042006100730070001C03770077000A
:1070A00077002E00660069007300630068006C00C2
:1070B0002E00640065000403090411241FBECFEFF5
:1070C000D8E0DEBFCDBF11E0A0E0B1E0E0E1F8E73D
:1070D00002C005900D92A630B107D9F711E0A6E0E5
:1070E000B1E001C01D92AD33B107E1F70E94CF3985
:1070F0000C94063C0C940038A82FB92F80E090E047
:1071000041E050EA609530E009C02D9182279795C3
:10711000879510F084279527305EC8F36F5FA8F33A
:107120000895EADF8D939D930895CF93CFB7CF93C2
:10713000C3954F9BE9F74F9B09C04F9B07C04F9BDF
:1071400005C04F9B03C04F9B01C0A1C0DF93C091FE
:107150002001DD27C95DDE4F4F9B02C0DF91EBCFE1
:107160002F930F931F9309B12FEF07FB20F94F9334
:107170003F9319B14FEF012707FB21F93BE031C0E5
:107180004E7F012F19B1216028C0102F4D7F226042
:10719000000009B129C04B7F2460012F000019B104
:1071A0002BC019B1477F28602AC04F7E09B12061EA
:1071B0002CC04F7D19B120622FC04F7B09B12064D4
:1071C00032C0422709B149934FEF0000102717FB47
:1071D00020F919B11478C9F1297F91F2012707FB31
:1071E00021F909B1237F89F2315058F1102717FB9B
:1071F00022F919B1277E79F2012707FB23F92F7CA9
:1072000081F209B1102717FB24F92F7971F200C020
:1072100019B1012707FB25F92F7359F200C009B1F5
:10722000102717FB26F9223040F200C019B10127C0
:1072300007FB27F9243028F64F77206819B10000A2
:10724000F9CF11E01CBB002717C03B503195C31B81
:10725000D04011E01CBB0881033CE9F00B34D9F0AD
:1072600020911E011981110F1213EDCF093641F142
:107270000D3211F0013E39F7009325013F914F91F6
:107280001F910F912F91DF91CCB3C0FD51CFCF91C2
:10729000CFBFCF91189520912501222379F310912A
:1072A0002301112311F5343012F13093230120937F
:1072B0001F01109120013BE0311B3093200117C0CA
:1072C0000091230101308CF40AE53091000134FD76
:1072D00010C000930001C3E1D1E00FC02795A8F4CE
:1072E0005150A9F4220F0000F9CF4AE503C042ED46
:1072F00001C0432FC4E1D0E032E01AB114685F9AB4
:107300001AB90BB120E414E85F93012756E00BB9DA
:10731000279520F4515021F4220FF9CF012756E090
:1073200000003B5A0BB9D0F2279528F4515029F4AC
:10733000220F0000F9CF012756E027950BB920F462
:10734000515021F4220FF9CF012756E02991332320
:107350000BB921F60B7710912401110FC651D040C3
:107360000BB911F010931E0111E01CBB00681AB19B
:107370001B77402F4B775F9100C000C00BB91AB943
:107380004BB97CCF1BB8F8941DBA1092690081E00C
:1073900085BF15BEE0911101F0911201099588E1B8
:1073A0000FB6F89480936000109260000FBE5F9A51
:1073B0005C9A04B600FC05C004B601FC02C014BE11
:1073C00006C014BE81E085BF82E085BF4C990E9453
:1073D000C23980916900836080936900E89A4C9B70
:1073E000FECF579878942CE0E22EF12CCC24C39455
:1073F00033E0B32E45E0A42E51E1952E88248394EA
:1074000063EC762E84E191E0D82E809123018350A5
:1074100087FD57C190912001E701C91BD109C95DC2
:10742000DE4F90911F019D3209F0C5C0883009F0F0
:1074300046C1709213018AE5809300011092070102
:10744000888180762981882309F445C088E091E00D
:1074500090932201809321012330D9F49B818C8168
:107460002A81203339F48370E82FF0E0EE5FFE4F7D
:1074700080810BC0203A19F40E94F03B06C0203CEA
:1074800019F46D810E94F83B80E080930B0124E0A9
:1074900088C02530F1F0822F84508630A0F48A8194
:1074A0009B8190930D0180930C01293009F40FC04A
:1074B0008E8180930E018D81827080930F012093C5
:1074C00010012FEF67C0223011F48092060120E0F6
:1074D00068C021E066C08A8110921C01211106C09B
:1074E00010921D018CE191E022E04EC0253019F48C
:1074F000809324013DC02630A9F59B81913019F479
:107500008AE790E704C0923041F488E690E79093D0
:1075100022018093210122E121C09330F1F48111F5
:1075200008C086EB90E7909322018093210124E02C
:1075300015C0813041F48AE990E79093220180934D
:1075400021012CE10BC0823041F48CE890E790934C
:107550002201809321012EE001C020E080E480938D
:10756000070116C0283069F0293029F480932601DC
:107570008CE191E004C08CE191E02A3021F020E020
:1075800003C086E291E021E09093220180932101E3
:107590002F3F39F4888187FD2E8180E88093070191
:1075A00007C08F81811104C08E81821708F4282FB3
:1075B0002093010184C09091070197FF80C09091B2
:1075C0000E01682E981708F4692E961990930E01F3
:1075D000552453949111512C80911001873010F44F
:1075E0002C2F65C08E0110C0F80161918F01809130
:1075F0000C0190910D019C012F5F3F4F30930D01C5
:1076000020930C010E94F83B802F8C1B861560F3A1
:10761000511053C054C080910C0190910D018F778F
:107620009927892BD9F0F894E0910C01F0910D0184
:10763000899199910C01C0925700E8951124789492
:1076400080910C0190910D01029690930D01809311
:107650000C018F779927892BC1F00DC0F894E09128
:107660000C01F0910D01B0925700E895789407B69F
:1076700000FCFDCFD8CF5520D1F08C2F821B861572
:10768000B0F080910F01882391F0F894E0910C0103
:10769000F0910D013297A0925700E895789407B6C3
:1076A00000FCFDCFF89490925700E89578948C2FC9
:1076B000821B861508F4AFCFABCF10920101109258
:1076C00023018091000184FF7BC0809101018F3FE5
:1076D00009F476C0682E893010F098E0692E86197A
:1076E000809301018091130198E889278093130109
:1076F000662009F452C08091070187FF27C080915E
:107700000E01861508F4682E861980930E0150909C
:107710001001C4E1D1E015C000910C0110910D01E0
:1077200086E0851520F4C8010E94F03B02C0F801F4
:107730008491888321960F5F1F4F10930D01009352
:107740000C018C2F8D19861538F324C0209121014E
:107750003091220186FF0BC0F901A4E1B1E0862D32
:107760008D0D94919D9331968A13FBCF09C0D90159
:10777000E4E1F1E0862D8D0D9D9191938E13FCCF68
:10778000862D815090E00196820F931F90932201E5
:1077900080932101F8E0F61568F0662D84E191E010
:1077A0000E949138862D8C5F8C3041F09FEF909332
:1077B000010104C08FEF809301018EE180930001ED
:1077C00084E199B1947831F48150D9F71092240171
:1077D00010921E0180910601882309F416CEF7CD80
:1077E000F999FECF92BD81BDF89A992780B5089589
:1077F000262FF999FECF1FBA92BD81BD20BD0FB6CD
:10780000F894FA9AF99A0FBE01960895F894FFCF6A
:067810005AFF1E950F0057
:040000030000700089
:00000001FF
